:100000000C948A2E1895189518951895189518958A
:10001000189518950C946C131895189518951895B3
:1000200018951895189518950C94912D1895189564
:100030001895189518951895189518951895189558
:10004000189518950C94902D189518951895189545
:100050001895189518951895427566666572696EBB
:1000600067006963792D6272006963792D6D65742B
:1000700061696E740053746F706564004745542065
:100080002F0020485454502F312E300D0A486F73E2
:10009000743A000D0A4963792D4D657461446174A9
:1000A000613A310D0A557365722D4167656E743A78
:1000B0002075457468526164696F2F302E310D0AC6
:1000C000436F6E6E656374696F6E3A20636C6F7315
:1000D000650D0A0D0A00436C6F73656400436F6E13
:1000E0006E656374696E6700436C6F73696E670059
:1000F000436F6E6E65637465640053746F706564FE
:1001000000427566666572696E6700506C61796958
:100110006E670053746F702052657175657374005B
:100120004B62730041A042A1E045A3A4A5A64BA742
:100130004D484FA8504354A9AA58E1ABACE2ADAE2C
:1001400062AFB0B161B2B3B4E365B6B7B8B9BABB28
:10015000BCBD6FBE7063BF79E478E5C0C1E6C2C3C1
:10016000C4C5C6C73200436F6E74656E742D4C658E
:100170006E6774683A00417574686F72697A617469
:10018000696F6E3A00726573706F6E736500757299
:1001900069003A754E696B65453A00427566666559
:1001A00072696E6700506C6179696E6700436F6EAB
:1001B0006E656374696E670053746F7070696E6703
:1001C000000D0A2A2A2A2075457468526164696FF5
:1001D0002076312E30302C286329323031300D0A10
:1001E0002A2A2A20627920416C6578616E646572E2
:1001F00020596572657A657965760D0A2A2A2A2062
:10020000754E696B65205443502F495020737461BB
:10021000636B20627920525354372F434253494530
:100220000D0A0D0A000B091C091D097E0978A46A34
:10023000D7070056B7C7E80C01DB7020241102EE87
:10024000CEBDC11603AF0F7CF507042AC687470C45
:1002500005134630A81106019546FD1607D898806B
:10026000690708AFF7448B0C09B15BFFFF110ABEA9
:10027000D75C89160B2211906B070C937198FD0CBB
:100280000D8E4379A6110E2108B449160F62251E62
:10029000F6050140B340C00906515A5E260E0BAA6E
:1002A000C7B6E914005D102FD605055314440209A2
:1002B0000A81E6A1D80E0FC8FBD3E71404E6CDE10E
:1002C000210509D60737C3090E870DD5F40E03EDB6
:1002D000145A45140805E9E3A9050DF8A3EFFC0934
:1002E00002D9026F670E078A4C2A8D140C4239FA24
:1002F000FF040581F671870B0822619D6D100B0CC0
:1003000038E5FD170E44EABEA40401A9CFDE4B0B6D
:1003100004604BBBF6100770BCBFBE170AC67E9BBD
:1003200028040DFA27A1EA0B008530EFD41003054D
:100330001D8804170639D0D4D90409E599DBE60BEA
:100340000CF87CA21F100F6556ACC417024422297A
:10035000F4060097FF2A430A07A72394AB0F0E3930
:10036000A093FC1505C3595B65060C92CC0C8F0A53
:10037000037DF4EFFF0F0AD15D848515014F7EA840
:100380006F0608E0E62CFE0A0F144301A30F06A136
:1003900011084E150D827E53F7060435F23ABD0A58
:1003A0000BBBD2D72A0F0291D386EB150901234547
:1003B0006789ABCDEFFEDCBA98765432100D0A0097
:1003C0003C494E50555420545950453D74657874FD
:1003D000204E414D453D002053495A453D3320565E
:1003E000414C55453D003C2F623E3C42523E536DD0
:1003F000616C6C20686172642F736F667420666F25
:100400007220456D62656464656420457468657238
:100410006E65743C2F493E3C42523E3C412048525E
:1004200045463D687474703A2F2F63627369652E78
:1004300064796E646E732E696E666F3E43425349F3
:10044000452048513C2F413E202D20313820596510
:10045000617273206F6620476C6F72793C2F424F38
:1004600044593E3C2F48544D4C3E003E3C42523E87
:100470003C494E50555420545950453D7375626D5A
:1004800069742056414C55453D5345543E3C2F46DA
:100490004F524D3E3C48523E3C464F524D204D45FA
:1004A00054484F443D504F535420414354494F4EBC
:1004B0003D723E3C494E50555420545950453D7371
:1004C00075626D69742056414C55453D22526562F6
:1004D0006F6F742064657669636520616E64207552
:1004E000736520616C6C206E657720736574746928
:1004F000676E7321223E3C2F464F524D3E3C485280
:100500003E3C4120485245463D7A3E436F6E666907
:1005100067757265206761746520706172616D65D1
:100520007465727320284E4F542053414645212153
:1005300021293C2F413E3C42523E3C493E3C623EDA
:10054000754E696B654531422076322E30207265DA
:100550007620003C48544D4C3E3C484541443E3C8E
:100560005449544C453E4E696B654531423C2F54CD
:1005700049544C453E3C2F484541443E3C424F4443
:10058000593E3C5441424C453E3C54523E3C5444FE
:1005900020434F4C5350414E3D323E3C48323E4E3C
:1005A000696B654531422076312E303C2F48323E12
:1005B0003C2F54443E3C2F54523E3C54523E3C54FB
:1005C000443E2843293230303920627920527374F6
:1005D000372F43425349453C2F54443E3C54443EFC
:1005E0003C4120485245463D2F3E4D61696E20708A
:1005F0006167653C2F413E3C2F54443E3C2F545292
:100600003E3C2F5441424C453E0043616368652D9A
:10061000436F6E74726F6C3A206E6F2D6361636806
:100620006500436F6E74656E742D547970653A2061
:10063000746578742F68746D6C003C464F524D2081
:100640004D4554484F443D504F5354204143544925
:100650004F4E3D002072657475726E2066616C733A
:10066000653B7D096966202800436F6E6E65637483
:10067000696F6E3A20636C6F73650029207B616C33
:100680006572742028222042616420003C494E504B
:10069000555420545950453D7375626D6974205608
:1006A000414C55453D00485454502F312E312000C7
:1006B0005D2E76616C75653B0976617220003D6F39
:1006C0002E656C656D656E74735B003C2F54443E03
:1006D00009005757572D41757468656E74696361D9
:1006E00074653A20446967657374207265616C6D46
:1006F0003D22754E696B6545222C206E6F6E6365D9
:100700003D220009093C54443E002E65786563286B
:1007100061003E3C2F464F524D3E0054523E090070
:1007200034303120417574686F72697A6174696F11
:100730006E205265717569726564005441424C4582
:100740003E002122293B20002D30293E323535291B
:100750007C7C282861004C6F636174696F6E3A205D
:100760002F003C2F0029213D6100333032204D6F96
:10077000766564007D2F3B097661722061003E3C06
:1007800000343034204E6F7420666F756E640072D2
:10079000657475726E20002056414C55453D003EF3
:1007A0002E00323030204F4B0048323E002053495B
:1007B0005A453D004E657720003D2F5B5C003C486C
:1007C000520072650057656220526164696F0009CA
:1007D0003C0049500070617373776F7264007363FB
:1007E000726970743E005D7B312C0054523E0041B2
:1007F00020485245463D006F6E003A200020676158
:10080000746520004C4344204944008DA4808A80B4
:10081000868087808085F7A93E88773E43B36E65E2
:10082000637420746F20ADB481F282EAA381F282F6
:10083000EAA381F282EAA381F282EA3E2077697418
:1008400068B581F282EA3E81F282EAA381F282EA0D
:10085000A381F282EA84FC83008DA48087808A8051
:1008600086808085A99FA55761726E696E67212079
:1008700053657475702074686973206461746120B5
:10088000B36C7920696E2073616665207375626E42
:100890006574219BA5887A3EA76C6F67696EB481E9
:1008A000F23E20A7AEB43C494E5055542054595006
:1008B000453DAE204E414D453DF29F42523E8C5348
:1008C000455494A93E887A3EA7ADB481F282E7A34D
:1008D00081F282E8A381F282E9A381F282EA3E20DA
:1008E000A74D4143B481F282EB3E2D81F282EC3E72
:1008F0002D81F282ED3E2D81F282EE3E2D81F2823B
:10090000EF3E2D81F282F084FC8300F22CF22CF277
:100910002CF22CF22CF22CF22CF22C0000008D96F2
:100920008091FB228087808A80868080008D9680DF
:1009300091FB222C207374616C653D747275658027
:1009400087808A80868080008DA08087808A8086CC
:1009500080808DA0008D9D8087808A8086809A808F
:1009600080008D9D8087808A8086809A7A80800032
:100970008D9D8087808A8086809A738080008865BC
:100980003E8C22454550524F4D20AA73746FAA6485
:100990002028322066726F6D2033292C2070AA73B4
:1009A0007320666F7220AA66AA7368212294008D54
:1009B000A48087808A808680803C48544D4C9F4824
:1009C0004541449F5449544C453EAB9B5449544C7B
:1009D000459FAF66756E637469B32063286F297B8A
:1009E000097661722061308F308E7230A8775C7327
:1009F0005C2E5C2DB031359E318F318E7231A86402
:100A0000B0339E328F328E61338F338E61348F34A8
:100A10008E61358F358E7235A864B0359E368F362F
:100A20008E7236A8775C2E5C2D5D7B302C33317D49
:100A30002F3B0969662028723093309C3029207B37
:100A4000616C65727420282742616420B6212729D1
:100A50003B89723193319C318BAD2122293B8972C4
:100A60003193329C328BAD9889723193339C338BA6
:100A7000AD9889723193349C348BAD9889723593DB
:100A8000359C358B706F72749889723693369C36AC
:100A90008BAA717565737498892828613199329988
:100AA0003399342D30293E323535298BAD9889283C
:100AB00061352D30293E36353533358B706F727484
:100AC0009820A166616C73653B7DA1747275653B6E
:100AD0007D9BAF9B484541449F424F44599F97ACF3
:100AE00095AC544420434F4C5350414E3D329FA54A
:100AF000AB2076312E309BA5909B953CB19228433C
:100B0000293230313020627920412E205965AA7A6D
:100B1000657965769B54449F54449FB22F3E4D6146
:100B2000696E20706167659B413E909BB19B97A960
:100B30009FA55374617469B3207365747570B42391
:100B400020D52F31359BA5887320B37375626D69ED
:100B5000743D22A1632874686973293B223EAC97D7
:100B600009AC9592B63A909281F2A63136A222D67D
:100B7000223E90099B95AC9592AD3A909281F2827B
:100B8000D7A381F282D8A381F282D9A381F282DA3B
:100B9000A390099B95AC9592506F72743A90928194
:100BA000F2A635A2DB3E90099B95AC9592526571F9
:100BB000756573743A909281F2A63332A222DC22D8
:100BC0003E90099B959B97098C534554943C97AC58
:100BD000B19288703E8C505245569490AC54443E2D
:100BE00088663E8C4E45585494909BB19B97A99F24
:100BF000B27A3E43B366696775AAB5706172616D7A
:100C0000657465727320284E4F5420534146452128
:100C10002121299B419F42529F499F623E754E6907
:100C20006B654531422076322E3020AA7620FC8337
:100C300000BD03C003D703E6036B0453050A062275
:100C4000063A06540669067B068C06A606B006BE62
:100C500006CB06D20603070A0712071B0720073B2D
:100C600007420748075607620765076A0774077E49
:100C70000781078F0797079F07A207A907AD07B44A
:100C800007B907BE07C207C507CF07D207D507DEDA
:0F0C900007E607EB07EF07F707FA07FD0704086A
:100CA000BE17E817ED17FC17F817F317F317E2183C
:100CB000C2179C18E218F818E2180F192219261901
:100CC000D117D117E2189C19E0EEF0E004851585E4
:100CD00026853785408551856285738504171507FC
:100CE000260737078A019B014485558566857785E8
:100CF00028F4041B150B260B370B12C0041715071D
:100D00002607370748F4041B150B260B370B055431
:100D1000194C2F4F3F4F04C00BEB16E320E030E09F
:100D200001501040204030400895E0EEF0E0048192
:100D30001581268137814081518162817381041739
:100D40001507260737078A019B0144815581668173
:100D5000778128F4041B150B260B370B15C00417DD
:100D600015072607370704E419EC21E030E060F4AA
:100D7000041B150B260B370B408151816281738157
:100D8000040F151F261F371FCBCFE0EEF0E000E069
:100D900030E0048305830683078300830183028395
:100DA000038305E419EC21E004871587268737873C
:100DB00000871187228733878C9A949806E00FB9B1
:100DC000779BFECF949A94982FB9779BFECF3FB92B
:100DD000779BFECF949A94982FB9779BFECF3FB91B
:100DE000779BFECF949A0895BA9AC29AB99AC198FD
:100DF0000FE811E001501040E9F700C00000C19A6F
:100E0000C2980FEF0FB9779BFECF0FB9779BFECF3C
:100E1000C29A0FEF11EE24E0015010402040E1F79C
:100E200000C00000E1EFF0E000E010E0008301838B
:100E300002810023A1F0C2980FEB0FB9779BFECF80
:100E400003E00FB9779BFECFC29AC2980FE90FB9A2
:100E5000779BFECF1FB9779BFECFC29A1283C298B1
:100E600008E40FB9779BFECF1FB9779BFECFC29ADC
:100E700002810023A1F0C2980FEB0FB9779BFECF40
:100E800003E00FB9779BFECFC29AC2980FE90FB962
:100E9000779BFECF1FB9779BFECFC29A1283C29871
:100EA00009E40FB9779BFECF1FB9779BFECFC29A9B
:100EB00002810023A1F0C2980FEB0FB9779BFECF00
:100EC00003E00FB9779BFECFC29AC2980FE90FB922
:100ED000779BFECF1FB9779BFECFC29A1283C29831
:100EE0000CE40FB9779BFECF1FB9779BFECFC29A58
:100EF00002810023A1F0C2980FEB0FB9779BFECFC0
:100F000003E00FB9779BFECFC29AC2980FE90FB9E1
:100F1000779BFECF1FB9779BFECFC29A1283C298F0
:100F20000DE40FB9779BFECF1FB9779BFECFC29A16
:100F300002810023A1F0C2980FEB0FB9779BFECF7F
:100F400003E00FB9779BFECFC29AC2980FE90FB9A1
:100F5000779BFECF1FB9779BFECFC29A1283C298B0
:100F60000AE40FB9779BFECF07E40FB9779BFECF5A
:100F7000C29A02810023A1F0C2980FEB0FB9779BB0
:100F8000FECF03E00FB9779BFECFC29AC2980FE95C
:100F90000FB9779BFECF1FB9779BFECFC29A128302
:100FA000C2980BE40FB9779BFECF0AE10FB9779B8C
:100FB000FECFC29A02810023A1F0C2980FEB0FB9B5
:100FC000779BFECF03E00FB9779BFECFC29AC29802
:100FD0000FE90FB9779BFECF1FB9779BFECFC29A5F
:100FE0001283C29804E40FB9779BFECF09E40FB9CE
:100FF000779BFECFC29A02810023A1F0C2980FEB2B
:101000000FB9779BFECF03E00FB9779BFECFC29A53
:10101000C2980FE90FB9779BFECF1FB9779BFECF20
:10102000C29A1283C29805E40FB9779BFECF0AE1FA
:101030000FB9779BFECFC29A02810032B1F0C298FD
:101040000FEB0FB9779BFECF03E00FB9779BFECF75
:10105000C29AC2980FE90FB9779BFECF01E00FB992
:10106000779BFECFC29A00E20283C29808E50FB9CF
:10107000779BFECF00EB0FB9779BFECFC29A028120
:101080000032B1F0C2980FEB0FB9779BFECF03E0AF
:101090000FB9779BFECFC29AC2980FE90FB9779B21
:1010A000FECF01E00FB9779BFECFC29A00E2028328
:1010B000C29808E40FB9779BFECF0FE30FB9779B77
:1010C000FECFC29A02810032B1F0C2980FEB0FB985
:1010D000779BFECF03E00FB9779BFECFC29AC298F1
:1010E0000FE90FB9779BFECF01E00FB9779BFECFD9
:1010F000C29A00E20283C29809E40FB9779BFECF3F
:1011000000E30FB9779BFECFC29A02810032B1F0A3
:10111000C2980FEB0FB9779BFECF03E00FB9779B17
:10112000FECFC29AC2980FE90FB9779BFECF01E0BC
:101130000FB9779BFECFC29A00E20283C29800E506
:101140000FB9779BFECF09EF0FB9779BFECFC29AFD
:1011500002810032B1F0C2980FEB0FB9779BFECF3E
:1011600003E00FB9779BFECFC29AC2980FE90FB97F
:10117000779BFECF01E00FB9779BFECFC29A00E2CA
:101180000283C29801E50FB9779BFECF07EF0FB935
:10119000779BFECFC29A02810034B1F0C2980FEB68
:1011A0000FB9779BFECF03E00FB9779BFECFC29AB2
:1011B000C2980FE90FB9779BFECF02E00FB9779B7A
:1011C000FECFC29A00E40283C29800E40FB9779B75
:1011D000FECF0DE00FB9779BFECFC29A028100349B
:1011E000B1F0C2980FEB0FB9779BFECF03E00FB9B8
:1011F000779BFECFC29AC2980FE90FB9779BFECFBB
:1012000002E00FB9779BFECFC29A00E40283C29836
:1012100001E40FB9779BFECF1FB9779BFECFC29A2F
:1012200002810034B1F0C2980FEB0FB9779BFECF6B
:1012300003E00FB9779BFECFC29AC2980FE90FB9AE
:10124000779BFECF02E00FB9779BFECFC29A00E4F6
:101250000283C29802E40FB9779BFECF02E30FB975
:10126000779BFECFC29A02810034B1F0C2980FEB97
:101270000FB9779BFECF03E00FB9779BFECFC29AE1
:10128000C2980FE90FB9779BFECF02E00FB9779BA9
:10129000FECFC29A00E40283C29803E40FB9779BA1
:1012A000FECF00E40FB9779BFECFC29A02810034D3
:1012B000B1F0C2980FEB0FB9779BFECF03E00FB9E7
:1012C000779BFECFC29AC2980FE90FB9779BFECFEA
:1012D00002E00FB9779BFECFC29A00E40283C29866
:1012E00006E40FB9779BFECF02E10FB9779BFECFE3
:1012F000C29A02810034B1F0C2980FEB0FB9779B0C
:10130000FECF03E00FB9779BFECFC29AC2980FE9D8
:101310000FB9779BFECF02E00FB9779BFECFC29A41
:1013200000E40283C29807E40FB9779BFECF0CE07C
:101330000FB9779BFECFC29A02810034B1F0C298F8
:101340000FEB0FB9779BFECF03E00FB9779BFECF72
:10135000C29AC2980FE90FB9779BFECF02E00FB98E
:10136000779BFECFC29A00E40283C29804E40FB9CF
:10137000779BFECF02E10FB9779BFECFC29A028125
:101380000034B1F0C2980FEB0FB9779BFECF03E0AA
:101390000FB9779BFECFC29AC2980FE90FB9779B1E
:1013A000FECF02E00FB9779BFECFC29A00E4028322
:1013B000C2980AE40FB9779BFECF0AE70FB9779B73
:1013C000FECFC29A02810034B1F0C2980FEB0FB980
:1013D000779BFECF03E00FB9779BFECFC29AC298EE
:1013E0000FE90FB9779BFECF02E00FB9779BFECFD5
:1013F000C29A00E40283C2980BE40FB9779BFECF38
:1014000005E00FB9779BFECFC29A1091940202813A
:101410000036B1F0C2980FEB0FB9779BFECF03E017
:101420000FB9779BFECFC29AC2980FE90FB9779B8D
:10143000FECF03E00FB9779BFECFC29A00E602838E
:10144000C29804E40FB9779BFECF1FB9779BFECFFC
:10145000C29A1091950202810036B1F0C2980FEB4A
:101460000FB9779BFECF03E00FB9779BFECFC29AEF
:10147000C2980FE90FB9779BFECF03E00FB9779BB6
:10148000FECFC29A00E60283C29805E40FB9779BAB
:10149000FECF1FB9779BFECFC29A109196020281B0
:1014A0000036B1F0C2980FEB0FB9779BFECF03E087
:1014B0000FB9779BFECFC29AC2980FE90FB9779BFD
:1014C000FECF03E00FB9779BFECFC29A00E60283FE
:1014D000C29802E40FB9779BFECF1FB9779BFECF6E
:1014E000C29A1091970202810036B1F0C2980FEBB8
:1014F0000FB9779BFECF03E00FB9779BFECFC29A5F
:10150000C2980FE90FB9779BFECF03E00FB9779B25
:10151000FECFC29A00E60283C29803E40FB9779B1C
:10152000FECF1FB9779BFECFC29A1091980202811D
:101530000036B1F0C2980FEB0FB9779BFECF03E0F6
:101540000FB9779BFECFC29AC2980FE90FB9779B6C
:10155000FECF03E00FB9779BFECFC29A00E602836D
:10156000C29800E40FB9779BFECF1FB9779BFECFDF
:10157000C29A1091990202810036B1F0C2980FEB25
:101580000FB9779BFECF03E00FB9779BFECFC29ACE
:10159000C2980FE90FB9779BFECF03E00FB9779B95
:1015A000FECFC29A00E60283C29801E40FB9779B8E
:1015B000FECF1FB9779BFECFC29A02810034B1F0F3
:1015C000C2980FEB0FB9779BFECF03E00FB9779B63
:1015D000FECFC29AC2980FE90FB9779BFECF02E007
:1015E0000FB9779BFECFC29A00E40283C29804E54C
:1015F0000FB9779BFECF00E10FB9779BFECFC29A60
:1016000002810034B1F0C2980FEB0FB9779BFECF87
:1016100003E00FB9779BFECFC29AC2980FE90FB9CA
:10162000779BFECF02E00FB9779BFECFC29A00E412
:101630000283C29806E50FB9779BFECF00E00FB991
:10164000779BFECFC29A02810034B1F0C2980FEBB3
:101650000FB9779BFECF03E00FB9779BFECFC29AFD
:10166000C2980FE90FB9779BFECF02E00FB9779BC5
:10167000FECFC29A00E40283C29807E50FB9779BB8
:10168000FECF01E00FB9779BFECFC29A02810036F0
:10169000B1F0C2980FEB0FB9779BFECF03E00FB903
:1016A000779BFECFC29AC2980FE90FB9779BFECF06
:1016B00003E00FB9779BFECFC29A00E60283C2987F
:1016C0000AE00FB9779BFECF00E00FB9779BFECF02
:1016D0000FB9779BFECF0FB1C29A00FBBEF2028119
:1016E0000023A9F0C2980FEB0FB9779BFECF03E060
:1016F0000FB9779BFECFC29AC2980FE90FB9779BBB
:10170000FECF00E00FB9779BFECFC29A0283C2984A
:101710000BE90FB9779BFECF01E80FB9779BFECF9E
:10172000C29AC2980FE90FB9779BFECF04E00FB9B8
:10173000779BFECFC29A02810034B1F0C2980FEBC2
:101740000FB9779BFECF03E00FB9779BFECFC29A0C
:10175000C2980FE90FB9779BFECF02E00FB9779BD4
:10176000FECFC29A00E40283C29804E50FB9779BCA
:10177000FECF04E10FB9779BFECFC29A02810034FD
:10178000B1F0C2980FEB0FB9779BFECF03E00FB912
:10179000779BFECFC29AC2980FE90FB9779BFECF15
:1017A00002E00FB9779BFECFC29A00E40283C29891
:1017B00006E50FB9779BFECF02E20FB9779BFECF0C
:1017C000C29A02810034B1F0C2980FEB0FB9779B37
:1017D000FECF03E00FB9779BFECFC29AC2980FE904
:1017E0000FB9779BFECF02E00FB9779BFECFC29A6D
:1017F00000E40283C29807E50FB9779BFECF01E0B2
:101800000FB9779BFECFC29A02810036B1F0C29821
:101810000FEB0FB9779BFECF03E00FB9779BFECF9D
:10182000C29AC2980FE90FB9779BFECF03E00FB9B8
:10183000779BFECFC29A00E60283C2980AE00FB9F6
:10184000779BFECF00E00FB9779BFECF0FB9779B58
:10185000FECF0FB1C29A00FBBEF20895BC014091C9
:10186000F3004423B1F0C2984FEB4FB9779BFECF02
:1018700043E04FB9779BFECFC29AC2984FE94FB968
:10188000779BFECF40E04FB9779BFECFC29A409343
:10189000F300C2984FE14FB9779BFECF40E04FB9BC
:1018A000779BFECF4FB1C29A43FBCEF2402F412B24
:1018B00019F0422F432B11F401E044C14091F30091
:1018C0004423B1F0C2984FEB4FB9779BFECF43E072
:1018D0004FB9779BFECFC29AC2984FE94FB9779B19
:1018E000FECF40E04FB9779BFECFC29A4093F30002
:1018F000C2984CE14FB9779BFECF40E04FB9779B40
:10190000FECF4FB1C29A41FBFEF4C2980FE90FB966
:10191000779BFECF00E80FB9779BFECFC29AC298A3
:101920000FEB0FB9779BFECF00E80FB9779BFECF87
:10193000C29AC2980CEB0FB9779BFECF02E00FB9A9
:10194000779BFECFC29AB8CF4091F3004423B1F009
:10195000C2984FEB4FB9779BFECF43E04FB9779BCF
:10196000FECFC29AC2984FE94FB9779BFECF40E0B5
:101970004FB9779BFECFC29A4093F300C29844E4DC
:101980004FB9779BFECF49E44FB9779BFECFC29A00
:101990004091F3004423B1F0C2984FEB4FB9779BCD
:1019A000FECF43E04FB9779BFECFC29AC2984FE972
:1019B0004FB9779BFECF40E04FB9779BFECFC29ADD
:1019C0004093F300C29845E44FB9779BFECF4AE1BC
:1019D0004FB9779BFECFC29A4091F3004423B1F0F8
:1019E000C2984FEB4FB9779BFECF43E04FB9779B3F
:1019F000FECFC29AC2984FE94FB9779BFECF40E025
:101A00004FB9779BFECFC29A4093F300C29842E44D
:101A10004FB9779BFECF49E44FB9779BFECFC29A6F
:101A20004091F3004423B1F0C2984FEB4FB9779B3C
:101A3000FECF43E04FB9779BFECFC29AC2984FE9E1
:101A40004FB9779BFECF40E04FB9779BFECFC29A4C
:101A50004093F300C29843E44FB9779BFECF4AE12D
:101A60004FB9779BFECFC29A522F575B4091F3003C
:101A70004423B1F0C2984FEB4FB9779BFECF43E0C0
:101A80004FB9779BFECFC29AC2984FE94FB9779B67
:101A9000FECF40E04FB9779BFECFC29A4093F30050
:101AA000C29846E44FB9779BFECF5FB9779BFECFD4
:101AB000C29AA901475B554E4091F3004423B1F00F
:101AC000C2984FEB4FB9779BFECF43E04FB9779B5E
:101AD000FECFC29AC2984FE94FB9779BFECF40E044
:101AE0004FB9779BFECFC29A4093F300C29847E468
:101AF0004FB9779BFECF5FB9779BFECFC29AC29852
:101B00004AE74FB9779BFECF40E04FB9779BFECFB6
:101B1000C29AF801C901C2980AE70FB9779BFECFB4
:101B2000019701910FB9779BFECFD1F7C29AC29866
:101B30000FE90FB9779BFECF08E00FB9779BFECF77
:101B4000C29A00E0CB010895192E282EA801009119
:101B5000F3000023B1F0C2980FEB0FB9779BFECFD3
:101B600003E00FB9779BFECFC29AC2980FE90FB975
:101B7000779BFECF00E00FB9779BFECFC29A009310
:101B8000F300C2980CE10FB9779BFECF00E00FB9CC
:101B9000779BFECF0FB1C29A00FB8EF5939A00910E
:101BA000F3000036B9F0C2980FEB0FB9779BFECF68
:101BB00003E00FB9779BFECFC29AC2980FE90FB925
:101BC000779BFECF03E00FB9779BFECFC29A00E66A
:101BD0000093F300C29807E90FB9779BFECF01E0AD
:101BE0000FB9779BFECFC29AC2980CEB0FB9779BC7
:101BF000FECF01E00FB9779BFECFC29A26C00091BD
:101C0000F3000036B9F0C2980FEB0FB9779BFECF07
:101C100003E00FB9779BFECFC29AC2980FE90FB9C4
:101C2000779BFECF03E00FB9779BFECFC29A00E609
:101C30000093F300C29807EB0FB9779BFECF01E04A
:101C40000FB9779BFECFC29A9398E1EFF0E0008145
:101C500012811123A9F0C2981FEB1FB9779BFECF09
:101C600013E01FB9779BFECFC29AC2981FE91FB934
:101C7000779BFECF10E01FB9779BFECFC29A1283ED
:101C8000C29810E41FB9779BFECF0FB9779BFECFA8
:101C9000C29A018112811123A9F0C2981FEB1FB9CA
:101CA000779BFECF13E01FB9779BFECFC29AC298F5
:101CB0001FE91FB9779BFECF10E01FB9779BFECFBE
:101CC000C29A1283C29811E41FB9779BFECF0FB955
:101CD000779BFECFC29AC2980AE30FB9779BFECFDB
:101CE00000E00FB9779BFECF0FB1C29A10E00083DE
:101CF0001183C2980AE30FB9779BFECF1FB9779B78
:101D0000FECF1FB1C29A7181712B7183C2980FB936
:101D1000779BFECF00E00FB9779BFECF0FB1C29A41
:101D200010E0C2986AE36FB9779BFECF1FB9779B2B
:101D3000FECF7FB1C29A172F04501040C2986FB9DE
:101D4000779BFECF60E06FB9779BFECF0FB0C29A52
:101D5000C2986AE36FB9779BFECF60E06FB9779B5B
:101D6000FECF6FB1C29A4017510708F48A0107FCF1
:101D700003C000E010E013C0F901C801C2982AE3D3
:101D80002FB9779BFECF202F212B41F0019720E028
:101D90002FB9779BFECF2FB12193C1F7C29A209123
:101DA000F3002223B1F0C2982FEB2FB9779BFECF1F
:101DB00023E02FB9779BFECFC29AC2982FE92FB9A3
:101DC000779BFECF20E02FB9779BFECFC29A20935E
:101DD000F300C29829E02FB9779BFECF20E02FB9FE
:101DE000779BFECF7FB1C29A60E02091F30022235F
:101DF000A9F0C2982FEB2FB9779BFECF23E02FB924
:101E0000779BFECFC29AC2982FE92FB9779BFECF5E
:101E10006FB9779BFECFC29A6093F300C29828E017
:101E20002FB9779BFECF6FB9779BFECF2FB1C29AA8
:101E3000622F2091F3002223B1F0C2982FEB2FB92B
:101E4000779BFECF23E02FB9779BFECFC29AC29833
:101E50002FE92FB9779BFECF20E02FB9779BFECFDC
:101E6000C29A2093F300C2982BE02FB9779BFECF44
:101E700020E02FB9779BFECF5FB1C29A40E020915E
:101E8000F3002223A9F0C2982FEB2FB9779BFECF46
:101E900023E02FB9779BFECFC29AC2982FE92FB9C2
:101EA000779BFECF4FB9779BFECFC29A4093F3004A
:101EB000C2982AE02FB9779BFECF4FB9779BFECF10
:101EC0002FB1C29A422F2091F1003091F20021509F
:101ED00030402617370748F08091F1009091F200CA
:101EE00001974817590708F046C02091F3002223B4
:101EF000B1F0C2982FEB2FB9779BFECF23E02FB91B
:101F0000779BFECFC29AC2982FE92FB9779BFECF5D
:101F100020E02FB9779BFECFC29A2093F300C2989E
:101F20002CE42FB9779BFECF4FB9779BFECFC29A97
:101F30002091F3002223B1F0C2982FEB2FB9779BA9
:101F4000FECF23E02FB9779BFECFC29AC2982FE92C
:101F50002FB9779BFECF20E02FB9779BFECFC29A97
:101F60002093F300C2982DE42FB9779BFECF5FB981
:101F7000779BFECF48C0E1EFF0E020812A953281C7
:101F80003323A9F0C2983FEB3FB9779BFECF33E0F4
:101F90003FB9779BFECFC29AC2983FE93FB9779B82
:101FA000FECF30E03FB9779BFECFC29A3283C29812
:101FB0003CE43FB9779BFECF2FB9779BFECFC29A07
:101FC00080819181019722812223A9F0C2982FEB71
:101FD0002FB9779BFECF23E02FB9779BFECFC29A14
:101FE000C2982FE92FB9779BFECF20E02FB9779BBE
:101FF000FECFC29A2283C2982DE42FB9779BFECFE1
:102000009FB9779BFECFC29AC2982EE92FB9779BD2
:10201000FECF20E42FB9779BFECFC29A822D912D5F
:102020000895E4EFF0E002E0028300E0038F02E2B3
:1020300012E10383148330E824E3258F368FE09385
:102040009E02F0939F020C9438257A926A925A92DB
:102050004A92BA93AA939A938A9300910F0100230C
:1020600009F06FC000E030E0E0EEF0E000830183B3
:1020700002830383E4EEF0E00083018302830383A1
:1020800005E419EC21E0E8EEF0E0008311832283FF
:102090003383ECEEF0E000831183228333833093AB
:1020A000F00030934501309382021091A00206E3C4
:1020B000109F48E350E0400D511D0E94AE2EC80114
:1020C000D9014CE350E01091A00206E3109F400DAF
:1020D000511D0E94A92EB801E5E8F2E000811181AE
:1020E00022813381EAE9F2E000801180228033808E
:1020F0000021112122213321200131010C011D0178
:10210000042015202620372000151105220533054F
:1021100039F4E4EFF0E0878B908FA18FB28F0AC083
:102120004DE050E00E94AE2EE4EFF0E0078B108F00
:10213000218F328FAB018C019D01A4EFB0E00E9492
:10214000682589919991A991B9914990599069907F
:102150007990089500E010E02AE009C0219F302D19
:10216000209F310D002D132F50E0040F151F4191BA
:102170004032E9F340534A3088F30895BA92AA9264
:102180009A928A927A926A925A924A929A938A93ED
:10219000802E5D01C901F90193A4E4EEF0E04080D6
:1021A00051806280738005E0901609F0DDC00091D7
:1021B0008202023061F000918202013029F0E8E5EC
:1021C000F0E001E00E94991501E0009382029498EA
:1021D00006E00FB9779BFECF949A949802E00FB96E
:1021E000779BFECF6FB8779BFECF5FB8779BFECF14
:1021F0004FB8779BFECF882009F454C0FC01A5A5F9
:10220000B6A5F50111915F010A2F0B2BB9F01197BB
:10221000A9F4112331F4FC01A7A5B0A9A5A7B6A77D
:102220003BC006E0FC0103A700E1109F05A616A62F
:102230008A9410E000E00E94211699C000E01FB9C6
:1022400011E0410E501E601E701E14E4411619EC80
:10225000510611E0610610E0700608F001E0779B7E
:10226000FECF0023C9F04424552466247724949A91
:10227000949806E00FB9779BFECF949A949802E069
:102280000FB9779BFECF1FB9779BFECF1FB9779B06
:10229000FECF1FB9779BFECF8A9409F0B2CFFC0125
:1022A000A5A7B6A7949AE4EEF0E04082518262823C
:1022B00073820081118122813381E0EEF0E0408160
:1022C00051816281738104171507260737078A0138
:1022D0009B01E4EEF0E0408151816281738128F43A
:1022E000041B150B260B370B17C004171507260701
:1022F000370704E419EC21E030E070F4041B150BFF
:10230000260B370BE0EEF0E0408151816281738152
:10231000040F151F261F371F01501040204030406A
:10232000003445E0140740E02407340730F401E0AE
:102330000093450100E010E008C0003844E31407B2
:102340002040304010F000E814E3FC01158F068FA8
:1023500000E089919991499059906990799089907C
:102360009990A990B990089506E09016D9F4882024
:1023700009F498CFFC01A5A5B6A509C0F5011191F6
:102380005F0101E00E9421168A9409F488CF119719
:10239000A9F705E0FC0103A707A510A905A716A743
:1023A0008A9429CF882009F47DCFF90124A5F5016D
:1023B00001915F0114E09116F1F50A3079F500E022
:1023C000FC01E20FF01F01AB2223F9F0E9E6F0E097
:1023D000DC01D1960E94F016002349F4FC01FD9621
:1023E000B9DE0F5F1F4FFC0107A710AB0CC0E2E680
:1023F000F0E0DC01D1960E94F016002321F4FC01EC
:10240000F8960E949A1620E016C005E0FC0103A78A
:1024100007A510A905A716A78A94D9CE0D3059F0A3
:102420002F3148F40A3309F400E030E0FC01E20FF8
:10243000F31F01AB23958A9409F0B9CFFC0124A7BF
:1024400093A630CFAA929A928A927A926A925A92DC
:102450004A929A938A932497602F012FAD01D90154
:102460006A9551F1625089F06A9579F06A9509F49C
:102470005CC06A9509F467C06A9509F441C06A9521
:1024800009F467C06A95E1F015C000E0F90103A7FF
:1024900004A705A706A707A700AB00938202009137
:1024A0008202002339F4E5E7F0E001E00E9499158B
:1024B0000E94AB1600E0C0C001E0F90103A7FACF0B
:1024C00000E0F90102A70E949506003045E11407DB
:1024D00040E02407340720F401E000934501EACFEF
:1024E00040934501003844E314072040304010F089
:1024F00000E814E3FD01158F068F03E001A7DACF92
:1025000010918202133021F405E000930F01D2CF25
:10251000F90113A5113021F402E003A701E08CC0FA
:10252000143040F2DA012ADE87C0109182021330A3
:1025300059F3F90113A5133009F0BCCF002309F4B6
:10254000B9CF04E0BBCFF90103A5033011F402E0D9
:1025500003A7F90103A5023009F0ACCF03E003A7FC
:102560000CE710E03A0125E0F80135918F01F30105
:1025700031933F012A95C1F788244EE350E0109132
:10258000A00206E3109F400D511D08C00E94A62E18
:10259000F30101933F014F5F5F4F83940E94A62E8A
:1025A0000023A1F700E1A02E02E810E0F801259138
:1025B0008F01F30121933F01AA94C1F72E011091DD
:1025C000A00206E3109F48E350E0400D511D0E9419
:1025D000AE2EC801D9019924A394082F10E0FE0162
:1025E0000E94B22DF2010081F30101933F01939407
:1025F00001E0400E00E0501EF2010081002391F73F
:102600002E0104E0A01628F40EE2F30101933F012D
:102610009394892F9A2FAB2FB0E0F0F203E910E0EA
:1026200022E4F80135918F01F30131933F012A959E
:10263000C1F7890C07E5080D249689919991499075
:1026400059906990799089909990A990089500E0A7
:102650000AB90BB906E800BD08E009B900E000BD01
:1026600008E00AB9089505C05D9BFECF25918F0152
:102670002CB9F80124912223B9F70895002339F0E9
:10268000035041F0025059F00A9561F00895E6EDCB
:10269000F0E002C0EDEDF0E001E00C949915E8EEF9
:1026A000F0E0FACFE0EFF0E0F7CF002339F00A9541
:1026B00041F00A9559F00A9561F00895EAEFF0E0CB
:1026C00002C0E1E0F1E001E00C949915EBE0F1E0EB
:1026D000FACFE3E1F1E0F7CF2A931A930A932FB7E9
:1026E00000914701102F139510934701033029F5EE
:1026F00000E000934701D89904C0C8990EC0D89A49
:102700000CC0C89B0AC0D89800910F01002311F497
:1027100001E001C002E000934601D99904C0C999C3
:102720000CC0D99A0AC0C99B08C0D99800918202EE
:10273000002319F403E0009346012FBF099119917A
:1027400029911895AC98AD9A14B3107F14BBAE9A2A
:1027500000C000C000C000C023B32295207FAE9807
:1027600000C000C000C000C0AE9A00C000C000C0E1
:1027700000C013B31F70212BAE9800C000C000C072
:1027800000C015B31F6015BB27FBE6F2AC98AD9AED
:1027900014B3107F14BBAE9A00C000C000C000C0CC
:1027A00013B3AE9800C000C000C000C0AE9A00C015
:1027B00000C000C000C013B3AE9800C000C000C08D
:1027C00000C015B31F6015BBAC98AD9814B31F6063
:1027D00014BB25B3207F102F12951F70212B25BB12
:1027E000AE9A00C000C000C000C0AE9815B3107F04
:1027F0000F70102B15BBAE9A00C000C000C000C007
:10280000AE9805B30F6005BB0895AC98AD9A14B3AC
:10281000107F14BBAE9A00C000C000C000C023B33C
:102820002295207FAE9800C000C000C000C0AE9AC4
:1028300000C000C000C000C013B31F70212BAE98B1
:1028400000C000C000C000C015B31F6015BB27FB4F
:10285000E6F2AC98AD9A14B3107F14BBAE9A00C0E8
:1028600000C000C000C013B3AE9800C000C000C0DC
:1028700000C0AE9A00C000C000C000C013B3AE9844
:1028800000C000C000C000C015B31F6015BB003CF5
:1028900030F0F0E0E02FEC59FF4F149109C0083AF6
:1028A00011F412EA05C0083B11F415EB01C0102F1A
:1028B000AC9AAD9804B30F6004BB25B3207F012F01
:1028C00002950F70202B25BBAE9A00C000C000C03F
:1028D00000C0AE9805B3007F1F70012B05BBAE9AF8
:1028E00000C000C000C000C0AE9805B30F6005BBBB
:1028F000AC98AD9A04B3007F04BBAE9A00C000C090
:1029000000C000C013B31295107FAE9800C000C085
:1029100000C000C0AE9A00C000C000C000C003B339
:102920000F70102BAE9800C000C000C000C005B3EF
:102930000F6005BB17FBE6F2AC98AD9A04B3007FBD
:1029400004BBAE9A00C000C000C000C003B3029533
:10295000007FAE9800C000C000C000C0AE9A00C0AA
:1029600000C000C000C013B31F70012BAE9800C0A0
:1029700000C000C000C015B31F6015BB003149F492
:10298000AC98AD9804B30F6004BB05B3007F0C6036
:1029900020C0003549F4AC98AD9804B30F6004BB77
:1029A00005B3007F096015C0003249F4AC98AD98BA
:1029B00004B30F6004BB05B3007F0D600AC000368E
:1029C000D9F4AC98AD9804B30F6004BB05B3007F95
:1029D000086005BBAE9A00C000C000C000C0AE9841
:1029E00005B3007F05BBAE9A00C000C000C000C0A8
:1029F000AE9805B30F6005BBAC98AD9A04B3007FE9
:102A000004BBAE9A00C000C000C000C013B3129552
:102A1000107FAE9800C000C000C000C0AE9A00C0D9
:102A200000C000C000C003B30F70102BAE9800C0F0
:102A300000C000C000C005B30F6005BB17FBE6F285
:102A4000AC98AD9A04B3007F04BBAE9A00C000C03E
:102A500000C000C003B3AE9800C000C000C000C0FA
:102A6000AE9A00C000C000C000C003B3AE9800C062
:102A700000C000C000C005B30F6005BB08959A9365
:102A80008A93C80103C00591CF01BFDEFC01049108
:102A90000023C9F7899199910895112311F40058E1
:102AA00003C0113011F400544DCE123011F4005710
:102AB000FBCF0053F9CF4A92BA93AA939A938A9381
:102AC000402ECF01002339F00A9539F00A9531F0F4
:102AD0000A9521F028C0A0E101C0AAE0B0E0142DC1
:102AE00000E0DBDF142D00E0D8DF06C0AC010E945F
:102AF000A62E8BDE0196B395AC010E94A62E002374
:102B000041F00B2F10E0EA2FF0E031970E171F076E
:102B10006CF3EA2FF0E0EB1BF040319724F000E279
:102B200074DEB395F6CF89919991A991B9914990A5
:102B300008954A92BA93AA939A938A93402ECF010A
:102B4000002339F00A9539F00A9531F00A9521F001
:102B500026C0A0E101C0AAE0B0E0142D00E09DDF96
:102B6000142D00E09ADF05C0FC010591CF014DDE78
:102B7000B395FC010491002341F00B2F10E0EA2FE4
:102B8000F0E031970E171F077CF3EA2FF0E0EB1B04
:102B9000F040319724F000E238DEB395F6CFC3CF92
:102BA00044B301E010E00E94CB2E006704BB0FEF9E
:102BB00019EF000001501040E1F700C000C003E031
:102BC00005BBAE9A00C000C000C000C0AE980FE1C7
:102BD0001EE401501040E9F700C00000AE9A00C0AA
:102BE00000C000C000C0AE980FE811E001501040D6
:102BF000E9F700C00000AE9A00C000C000C000C0ED
:102C0000AE980FE811E001501040E9F700C0000055
:102C100002E005BBAE9A00C000C000C000C0AE9884
:102C20000FE811E001501040E9F700C0000008E291
:102C300089DD01E087DD06E085DD0CE083DD01E074
:102C400081CDBA93AA938A93812F002371F400E077
:102C5000009348010093490112E01FDF80E200E287
:102C6000D4DD8A9509F462C0FACF009148010F3F84
:102C700009F45CC0102F1395109348010D3008F42F
:102C800055C0873249F4A8E4B1E007E20093490156
:102C9000012F0A950C934AC000914901073299F51A
:102CA0008B3321F40FEF0093480140C0009148019D
:102CB0000E500032D8F519B71F7B19BF102F12958F
:102CC0001F701E5F0F70E9DEA8E4B1E000914901BA
:102CD0009CDD0C9103950C9309B7006409BF00912A
:102CE00048010E50003210F519B71F7B19BF102F85
:102CF00012951F701E5F0F70D0DE082F86DD00E07A
:102D00000093490110C0009148010E50003270F448
:102D100019B71F7B19BF102F12951F701E5F0F7000
:102D2000BCDE082F72DD09B7006409BF8991A99143
:102D3000B9910895BA93AA93DF0111E00AE0ADDEDC
:102D400001C063DD0D910023E1F700E211E097DEA1
:102D5000A991B99108958A9311E00AE09EDE86E276
:102D600000E253DD8A95E1F7899108950FB7F89451
:102D70000FBF0895E1EAF2E000E00193F830E9F7CF
:102D800001E003BF09B7026009BF0895F8011FE021
:102D9000A9010E94A62E2F5F3F4F1A9509F400E06B
:102DA00001930023A9F731978F01089505910D93A1
:102DB0000023E1F711978D010895E4E9F1E030E592
:102DC00020E02787308B01E00283038F00E41CE1C1
:102DD0000383148330E028E0258F368F0C94382548
:102DE0000D911591013618F00B3708F40052113689
:102DF00018F01B3708F41052002321F0112311F0B2
:102E0000011771F3011B08950C94B22D04E611E033
:102E10000895ED59FF4F208115810681273461F413
:102E2000112311F401E008951A3711F402E0089516
:102E3000133721F503E00895203501F5073711F424
:102E400004E008950D3611F405E00895053611F4F7
:102E500007E00895023711F408E008950A3711F4E5
:102E600009E00895063611F40AE00895003711F4D8
:102E70000BE00895033711F40CE0089500E0089585
:102E8000009193010023E1F041E150E000E0009364
:102E900093010E94A62E10919301112359F00E94D4
:102EA000C02E00E0009393010E94A62E0091930192
:102EB000002331F44F5F5F4F13E04839510731F77A
:102EC0000895202F06AD233F80F0235F243018F4AF
:102ED00045E050E005C024502630A8F441E150E020
:102EE00030E0420F531F0C94C02E2A95283058F41E
:102EF00049E050E030E0420F531F0E94C02E2730BF
:102F000011F40E942510089500E010E02AE009C0A5
:102F1000219F302D209F310D002D132F50E0040FE5
:102F2000151F41914032E9F340534A3088F3089528
:102F30008A927A926A925A924A929A938A93802EAD
:102F40003D012901D9019B96FD018281958984313A
:102F500011F400E0B6C2853108F0B2C20023C9F313
:102F6000F3010081182F8431E0F4F2E01F9FF0019B
:102F7000E056F34F05901490F0010994953020F03D
:102F8000013210F481E0E8C1003209F40AE330E0D4
:102F9000F201E90FF31FED59FF4F0083939597302E
:102FA00089F38A3008F4D3C1F201BB9606891789E8
:102FB00001501040202F212B09F0C5C106E10283EA
:102FC000958B8C3009F0D4C1F201092F7ADF05C24C
:102FD0000A3039F790E082E0BAC10D3011F489E08F
:102FE000B6C183E0B9C1023219F4992341F4D9CFB3
:102FF0000D3329F00C3219F0102F013208F410E0D3
:1030000030E0F201E90FF31FED5BFF4F1083939562
:10301000112311F0903228F290E0182F135039F05C
:103020001A95D9F01A9599F11A95B9F1BACF81E0AC
:10303000E6E6F1E0D201AD5BBF4FD2DE002311F432
:1030400087E085C1E6E7F1E0D201AD5BBF4FC8DEA6
:10305000002309F081C184E07AC1003208F492CFE4
:103060000D3309F09ECFE5E8F1E0D201AD5BBF4F33
:10307000B7DE002309F486E0EEE8F1E0D201AD5BB3
:10308000BF4FAEDE002309F08CCF85E060C1F201B6
:10309000BB96018D00934102DECFF201BADE002320
:1030A00009F446C027E130E001E412E06FDED80108
:1030B000E2E9F1E07BDE27E230E068DE01E412E0E5
:1030C0000E94062F402F21E432E00FEF11E00E9412
:1030D0006E2392012D593F4F01E412E00E94FB2E16
:1030E00001E412E00E94062F402F21E432E0890122
:1030F0000E946E230AE300931F020093400242E6FF
:103100002FEF31E089010E946E2340E250E09201EE
:103110002D5B3F4F0FEF11E00E94102F012BF201AA
:1031200031F403A5023020F4039503A701C093A74F
:1031300001E0F20104A726CFD2019B96FD0103898D
:1031400014890F5F1F4F068B178B00E0038B048BD6
:1031500081E101E001830083F2015BDEFD0110816A
:10316000113009F021CF045069F00A9559F002504E
:1031700039F1025039F00A9539F00A95A1F00A9513
:10318000E9F00FCF8AE010CFF201E351FF4F008149
:10319000102F139510830F30A9F700E0F201E351CF
:1031A000FF4F0083EFCFF201E351FF4F0081102F5B
:1031B0001A951083002331F70FE0F0CF0000E2CF23
:1031C0005FDEF2CE00530A3010F08395C5C0D20105
:1031D0009B96FD01438954892AE0259F302D249F29
:1031E000202D310D10E0200F311F238B348BD9CED1
:1031F000F201BB9693898CE0993C28F0913D18F43C
:1032000090E08FE0D1CE913FD9F3923F11F490E15D
:10321000F8CF00E0F20106AFBB96048BC5CE0F34A9
:1032200011F00F3629F401E010E0F20106AF17AFFC
:10323000F201092F46DE00E0F20106AFBB96048BD7
:103240008EE08AC0063209F0ACCE9CCF063209F07F
:1032500064C0992309F45BC0F20106AD17AD093CC7
:1032600020E0120741F4E1E4F2E04EDEF201E35126
:10327000FF4F00834CC00A3C1207D1F44EE550E0EA
:10328000E351FF4F108106E3109F400D511DE1E413
:10329000F2E007C00B3209F400E20E94C02E4F5F3B
:1032A0005F4F01910023B1F700E00E94C02E2FC0B4
:1032B0000B3C1207A8F00F3C120790F4E1E4F2E097
:1032C00023DE4DE65FEFF20126AD37AD420F531F0F
:1032D000E351FF4F208116E3219F400D511DE5CFA3
:1032E0000F3C120781F4E1E4F2E00EDE4CE350E023
:1032F000F201E351FF4F308126E3329F400D511D13
:103300000E94C42E04C0003D104009F4000000E0FB
:10331000F20106AFBB96048B35CF192F1F701F30FB
:1033200011F481E141CEE1E4F2E030E0E90FF31F76
:1033300001933083939535CE00E0F20106AFBB9642
:10334000048B82E131CEF201BB96068B178B01E034
:10335000600E00E0701E8A94882009F001CE0BE216
:10336000400E00E0501ED201F2018283958BA9C06D
:103370008F3099F5F2014DDD0C30D1F44EE350E081
:10338000F201E351FF4F108106E3109F400D511DE4
:10339000992351F0E1E4F2E004C00E94C02E4F5F97
:1033A0005F4F01910023C9F700E00E94C02E15C0B5
:1033B000F2012FDD043089F047E150E010E0E1E454
:1033C000F2E001910E94C02E13954F5F5F4F1031C4
:1033D00011F447E250E01032A0F388E499E0F201E2
:1033E00018DD102F002309F45CC0F20103A50023AF
:1033F00031F00A9539F00A9509F448C052C08EE1BF
:1034000099E048C01A9599F01A95F1F01A95B9F11A
:103410001A95A1F01A9591F0125081F01A9571F059
:103420001A9549F0115078F1135058F02CC08BE0E8
:1034300098E000E027C082E699E025C085E599E0A4
:1034400022C080E799E01FC085E090E06624A1E4F7
:10345000B2E0AC010E94A62E10E0FD01D5DC019681
:10346000639404E0601611F481E190E015960AE09F
:10347000601678F389E598E000EFF20103C08FEA67
:1034800099E009EC05AB02E003A70BC08DE299E0DF
:1034900000E003A742E62FEF31E000E212E00E94D5
:1034A0006E2300E000934002F20186A797A708E090
:1034B00010E0BE9626E3420E511ED2010E94AC24BB
:1034C00001E08991999149905990699079908990FA
:1034D00008957A926A925A924A929A938A93702E97
:1034E0002D01D901CA01FA0105A56624053151F45F
:1034F00006E105A703E002A70D911C911197012B8E
:1035000081F402C00631C0F700E04BC0FD01078125
:10351000039507838C010D5B1F4F028313830FEF0D
:103520000683FC0176DC023079F0FD0107810A9503
:10353000083050F449E050E010E0400F511F0E9465
:10354000A62EE0E5F2E060DCFD01078110E0FC0161
:10355000ED5BFF4F59DCFD0106810D5F09F4C5C02D
:103560000A9509F462C10A9521F00A9509F474C01C
:103570004FC0FB2F2281338109C02F5F3F4F142D95
:10358000152919F0F20101932F016394F9011081BB
:10359000012F112369F0671480F3FD012283338327
:1035A000062D899199914990599069907990089543
:1035B00000E0FD010683228333834EC02F5F3F4F1F
:1035C000142D152919F0F20101932F016394F901CB
:1035D0001491012F112361F3671480F3DECF4F5F45
:1035E0005F4F142D152919F0F20101932F016394F7
:1035F0000E94A62E002331F0671488F3FD01428358
:103600005383CECF00E0FD0106834283538324C061
:10361000228133810AC0F90101919F01142D1529DE
:1036200019F0F20101932F016394FD01068100233B
:1036300011F2671480F3B2CF671408F0B1CF2D9167
:103640003C912F5F3F4F3C932E93142D152919F079
:10365000F20101932F016394ED91FC911197049174
:10366000002311F0003840F32D913C912F5F3F4F24
:103670003C932E93043D08F48DC00D3D08F08AC0A4
:10368000102F155D99F01A9509F11A9591F11A9577
:10369000E9F11A9509F448C01A9509F453C01A952E
:1036A00009F45EC01A9509F468C06AC0FC01E351D0
:1036B000FF4F008110E0E1E4F2E0A6DB01E412E05C
:1036C000FD01028313830FEF068353CF0EE510E055
:1036D000FC01E351FF4F308126E3329F000D111DA5
:1036E000FD01028313830DEF0683FB2F428153817B
:1036F0007FCFFC01E351FF4F108106E3109F48E3A9
:1037000050E0400D511D0E94AE2ED4CFFC01E3517C
:10371000FF4F108106E3109F48E350E0400D511D1C
:103720000E94AE2E012FC6CFFC01E351FF4F108146
:1037300006E3109F48E350E0400D511D0E94AE2E5D
:10374000022FB8CFFC01E351FF4F108106E3109F19
:1037500048E350E0400D511D0E94AE2E032FAACF2A
:103760004CE350E0FC01E351FF4F108106E3109F52
:10377000400D511D0E94A92E9ECF0EE310E0A8CF50
:103780002DE13EEF15E0019F200D311DFD0122834B
:10379000338399CF073E28F0013F18F42EEB3DEF1D
:1037A000F1CF102F125F09F4B1CE1A9509F463C05E
:1037B000115078F1135008F441C009F44DCF1A9517
:1037C00009F456C01A9509F44AC01250A1F11A958D
:1037D00081F11450F1F4FD0104811581012B49F0B0
:1037E00004810D931C93119700E0FB2F0483058344
:1037F00033CF0D911C91015010401C930E9345281E
:1038000009F0CECE4B96FC010FEF028B05E0008352
:10381000C7CE12E0019FF001EF5CF44F05911491C7
:10382000FD01028313830EEF0683FB2F2281338178
:10383000CECEECDAF5CF00E212E042CF2D913C91F2
:103840001197FD012483358312E0019FF001E35CB1
:10385000FF4F059114910D931C931197FDCE01E438
:1038600012E0FD010283138307810395078357CE7E
:1038700006E412E0F6CFFD0107810A95078351CED9
:10388000402F612F8D01D9014A95B9F0425009F1BD
:103890004A9599F04A95C9F14A95C9F14A9591F12D
:1038A0004A95E1F14A9511F14A95F9F14A9509F4E1
:1038B0004FC04A9509F454C03CC000914A01FD0133
:1038C000BD961EE320E021931A95E9F7FD0124A798
:1038D0000895F90105A50F3F81F79BDA083069F7D4
:1038E000FD0103A5002349F3F894FFCFF90142A598
:1038F00000E002A705A50631E1F44330D1F403E06E
:1039000001A717C0D801062F13CB2A5C09C0F90103
:10391000BE9628E0308531932A95E1F79D01225D1E
:103920003F4FAD01D801062FD4CD40914A0144301C
:1039300011F400E0089522E1429F2BE431E0200DD4
:10394000311DF80120833183439540934A0105C01E
:103950002BE431E0F8012083318300914A0108957E
:1039600000914A01002351F0EBE4F1E016E32289D3
:1039700021931A95E1F70A9500934A01089526E0EC
:1039800070E041E150E0420F571F0E94A62EE22F47
:10399000F0E0EC56FD4F00832A952F3F91F745E06C
:1039A00050E00E94AE2EE5E8F2E00083118322830E
:1039B000338341E050E00E94AE2EEAE9F2E000835A
:1039C00011832283338347E350E00E94A62E0093A5
:1039D000A00208958B9A8D9A939A0FEF13ED20E32E
:1039E000015010402040E1F700C0000093980E9471
:1039F000E12D0E946A2EE4E9F1E00EEE10E0119351
:103A00000A95E9F70E94271301EC11E00E94331395
:103A100000E002B9B4DFF8940E949F2D0E94BA160C
:103A20000E94C5067894C9D90E9411100E94D01531
:103A300047E350E00E94A62E0093A002EEE5F0E0DE
:103A40001091A00206E3109FE00DF11D00E00E941E
:103A50005B1500910F010E943E13009182020E94AB
:103A6000551301E010E01BBD0ABD0FB5026C0FBD80
:103A700005B5076005BD0EB509600EBD09B7006448
:103A800009BF20C00091A00203950093A0020091FD
:103A9000A002003118F000E00093A0020091A00203
:103AA00047E350E00E94C02EEEE5F0E01091A00246
:103AB00006E3109FE00DF11D00E00E945B1500E0A1
:103AC0000093460100E000938302119B02C011980D
:103AD0002EC00091F3000032B9F0C2980FEB0FB97D
:103AE000779BFECF03E00FB9779BFECFC29AC298B7
:103AF0000FE90FB9779BFECF01E00FB9779BFECF9F
:103B0000C29A00E20093F300C29809E10FB9779BD3
:103B1000FECF0FEF0FB9779BFECF0FB1C29A0023F4
:103B200009F41CC30E94A12D012B09F417C30E94A4
:103B3000E3254090F000442009F410C3442009F428
:103B40000DC34A9409B70F7B09BFE1EAF2E0B0E088
:103B50004091E8005091E9006091EA007091EB001B
:103B6000949803E00FB9779BFECF6FB9779BFECF98
:103B70005FB9779BFECF4FB9779BFECF01E010E096
:103B800055242FEF2FB94F5F5F4F6F4F7F4F40305E
:103B9000550522E06207750508F05394779BFECF28
:103BA0000FB02B2FBB2329F02A9549F02A9549F015
:103BB00048C0902D80E00F5F1F4FB39543C0802910
:103BC000FACFA02DB395873705E0900710F086E770
:103BD00095E00091EC001091ED002091EE00309105
:103BE000EF000090E8001090E9002090EA0030908B
:103BF000EB00001511052205330548F400191109E1
:103C0000220933090554194C2F4F3F4F0EC000169F
:103C100011062206330628F4001911092209330976
:103C200004C000E010E020E030E008171907204051
:103C3000304018F420E030E02DC08C010F5F1F4FA2
:103C400001C00192552099F0949A45E459EC61E045
:103C500070E0949823E02FB9779BFECF6FB9779BE4
:103C6000FECF5FB9779BFECF4FB9779BFECF980110
:103C700001501040232B09F083CF949AE8EEF0E036
:103C800040835183628373830091F0000A9500930F
:103C9000F0009C01A093840200918B0210918C0291
:103CA000A01B0AF44BCF01E0009383020093930220
:103CB00020938D0230938E020E94E32585E006C09A
:103CC00001E000931E018A9509F438CF0091820229
:103CD000023009F02DC2879B2BC207E118E0E4EE09
:103CE000F0E04081518162817381E0EEF0E000807C
:103CF000118022803380401551056205730598F4C8
:103D000044E459EC61E070E040195109620973091B
:103D1000E4EEF0E00080118022803380400D511DE0
:103D2000621D731D19C0A001B101E4EEF0E0008036
:103D3000118022803380401551056205730588F497
:103D4000A001B101E0EEF0E000801180228033801C
:103D50004019510962097309403250406040704077
:103D600040F401E000938202EBE9F1E00E94991532
:103D7000DFC1E0EEF0E00080118022803380A001FE
:103D8000B101405E5F4F6F4F7F4F4434594C6140EB
:103D900020E0704008F0DAC0949803E00FB9779BF8
:103DA000FECF2FB8779BFECF1FB8779BFECF0FB803
:103DB000779BFECF0FEF0FB9779BFECF1FB10FB9E7
:103DC00010931708779BFECF1FB10FB910931808F7
:103DD000779BFECF1FB10FB910931908779BFECFC9
:103DE0001FB10FB910931A08779BFECF1FB10FB9FF
:103DF00010931B08779BFECF1FB10FB910931C08BF
:103E0000779BFECF1FB10FB910931D08779BFECF94
:103E10001FB10FB910931E08779BFECF1FB10FB9CA
:103E200010931F08779BFECF1FB10FB91093200886
:103E3000779BFECF1FB10FB910932108779BFECF60
:103E40001FB10FB910932208779BFECF1FB10FB996
:103E500010932308779BFECF1FB10FB9109324084E
:103E6000779BFECF1FB10FB910932508779BFECF2C
:103E70001FB10FB910932608779BFECF1FB10FB962
:103E800010932708779BFECF1FB10FB91093280816
:103E9000779BFECF1FB10FB910932908779BFECFF8
:103EA0001FB10FB910932A08779BFECF1FB10FB92E
:103EB00010932B08779BFECF1FB10FB910932C08DE
:103EC000779BFECF1FB10FB910932D08779BFECFC4
:103ED0001FB10FB910932E08779BFECF1FB10FB9FA
:103EE00010932F08779BFECF1FB10FB910933008A6
:103EF000779BFECF1FB10FB910933108779BFECF90
:103F00001FB10FB910933208779BFECF1FB10FB9C5
:103F100010933308779BFECF1FB10FB9109334086D
:103F2000779BFECF1FB10FB910933508779BFECF5B
:103F30001FB110933608949A00E2000E121E221E42
:103F4000321E408311822282338250C0E4E4E019A1
:103F500020E22E1BEE2321F1949833E03FB9779BAA
:103F6000FECF2FB8779BFECF1FB8779BFECF0FB841
:103F7000779BFECF3E2F4FEF4FB9779BFECF4FB1D0
:103F8000F80141938F013A95B1F7949A00241124D6
:103F900022243324E0EEF0E00082018202820382D8
:103FA000222321F1949833E03FB9779BFECF2FB8BD
:103FB000779BFECF1FB8779BFECF0FB850E0020E65
:103FC000151E251E351EE0EE0082118222823382EC
:103FD000779BFECF322F2FEF2FB9779BFECF2FB1DC
:103FE000F80121938F013A95B1F7949AC398009103
:103FF00017080FB9779BFECF009118080FB9779B70
:10400000FECF009119080FB9779BFECF00911A08D7
:104010000FB9779BFECF00911B080FB9779BFECF9E
:1040200000911C080FB9779BFECF00911D080FB9B6
:10403000779BFECF00911E080FB9779BFECF0091B2
:104040001F080FB9779BFECF009120080FB9779B0F
:10405000FECF009121080FB9779BFECF0091220877
:104060000FB9779BFECF009123080FB9779BFECF46
:10407000009124080FB9779BFECF009125080FB956
:10408000779BFECF009126080FB9779BFECF00915A
:1040900027080FB9779BFECF009128080FB9779BAF
:1040A000FECF009129080FB9779BFECF00912A0817
:1040B0000FB9779BFECF00912B080FB9779BFECFEE
:1040C00000912C080FB9779BFECF00912D080FB9F6
:1040D000779BFECF00912E080FB9779BFECF009102
:1040E0002F080FB9779BFECF009130080FB9779B4F
:1040F000FECF009131080FB9779BFECF00913208B7
:104100000FB9779BFECF009133080FB9779BFECF95
:10411000009134080FB9779BFECF009135080FB995
:10412000779BFECF009136080FB9779BFECFC39ADD
:1041300000914501013009F0C6CD009182020A9537
:1041400021F00A9509F4BCCDBECD02E000938202B5
:10415000E5EAF1E001E00E949915B2CD09B70064EB
:1041600009BF84E000918202023009F028C2879BD7
:1041700026C2A7E1B8E0E4EEF0E0008111812281DF
:104180003381E0EEF0E04081518162817381041758
:1041900015072607370798F404E419EC21E030E00E
:1041A000041B150B260B370BE4EEF0E04081518128
:1041B00062817381040F151F261F371F19C08A01E2
:1041C0009B01E4EEF0E0408151816281738104172C
:1041D00015072607370788F48A019B01E0EEF0E017
:1041E0004081518162817381041B150B260B370BB3
:1041F000003210402040304040F401E00093820241
:10420000EBE9F1E00E949915DAC1E0EEF0E04081BF
:104210005181628173818A019B01005E1F4F2F4F84
:104220003F4F0434194CE1E02E07E0E03E0708F070
:10423000D8C0949803E00FB9779BFECF6FB9779BF6
:10424000FECF5FB9779BFECF4FB9779BFECF0FEFC5
:104250000FB9779BFECF1FB10FB910931708779B4B
:10426000FECF1FB10FB910931808779BFECF1FB177
:104270000FB910931908779BFECF1FB10FB9109398
:104280001A08779BFECF1FB10FB910931B08779BBD
:10429000FECF1FB10FB910931C08779BFECF1FB143
:1042A0000FB910931D08779BFECF1FB10FB9109364
:1042B0001E08779BFECF1FB10FB910931F08779B85
:1042C000FECF1FB10FB910932008779BFECF1FB10F
:1042D0000FB910932108779BFECF1FB10FB9109330
:1042E0002208779BFECF1FB10FB910932308779B4D
:1042F000FECF1FB10FB910932408779BFECF1FB1DB
:104300000FB910932508779BFECF1FB10FB91093FB
:104310002608779BFECF1FB10FB910932708779B14
:10432000FECF1FB10FB910932808779BFECF1FB1A6
:104330000FB910932908779BFECF1FB10FB91093C7
:104340002A08779BFECF1FB10FB910932B08779BDC
:10435000FECF1FB10FB910932C08779BFECF1FB172
:104360000FB910932D08779BFECF1FB10FB9109393
:104370002E08779BFECF1FB10FB910932F08779BA4
:10438000FECF1FB10FB910933008779BFECF1FB13E
:104390000FB910933108779BFECF1FB10FB910935F
:1043A0003208779BFECF1FB10FB910933308779B6C
:1043B000FECF1FB10FB910933408779BFECF1FB10A
:1043C0000FB910933508779BFECF1FB110933608B5
:1043D000949A405E5F4FE0EE4083518322833383A3
:1043E0004CC0E4E4E41B00E2002E0E1AEE2309F1B7
:1043F000949803E00FB9779BFECF6FB9779BFECF00
:104400005FB9779BFECF4FB9779BFECF0E2F1FEF83
:104410001FB9779BFECF1FB11D930A95C1F7949AE0
:1044200040E050E060E070E0E0EE40834183428392
:104430004383002011F1949803E00FB9779BFECFDE
:104440006FB9779BFECF5FB9779BFECF4FB9112431
:10445000400D511D611D711DE0EE4083518362834B
:104460007383779BFECF002D1FEF1FB9779BFECF85
:104470001FB11D930A95C1F7949AC398009117082C
:104480000FB9779BFECF009118080FB9779BFECF2D
:10449000009119080FB9779BFECF00911A080FB948
:1044A000779BFECF00911B080FB9779BFECF009141
:1044B0001C080FB9779BFECF00911D080FB9779BA1
:1044C000FECF00911E080FB9779BFECF00911F0809
:1044D0000FB9779BFECF009120080FB9779BFECFD5
:1044E000009121080FB9779BFECF009122080FB9E8
:1044F000779BFECF009123080FB9779BFECF0091E9
:1045000024080FB9779BFECF009125080FB9779B40
:10451000FECF009126080FB9779BFECF00912708A8
:104520000FB9779BFECF009128080FB9779BFECF7C
:10453000009129080FB9779BFECF00912A080FB987
:10454000779BFECF00912B080FB9779BFECF009190
:104550002C080FB9779BFECF00912D080FB9779BE0
:10456000FECF00912E080FB9779BFECF00912F0848
:104570000FB9779BFECF009130080FB9779BFECF24
:10458000009131080FB9779BFECF009132080FB927
:10459000779BFECF009133080FB9779BFECF009138
:1045A00034080FB9779BFECF009135080FB9779B80
:1045B000FECF009136080FB9779BFECFC39A0091CA
:1045C0004501013091F4009182020A9519F00A9593
:1045D00049F00BC002E000938202E5EAF1E001E05D
:1045E0000E94991501E000931E018A9509F0BACD49
:1045F000E4EEF0E00081118122813381E0EEF0E011
:10460000408151816281738104171507260737079E
:1046100078F404E419EC21E0041B150B260BE4EEFE
:10462000F0E0408151816281040F151F261F1AC0DE
:104630008A019B01E4EEF0E0408151816281738147
:10464000041715072607370758F48A01262FE0EECE
:10465000F0E0408151816281041B150B260B02C0E2
:1046600010E020E02BBD1ABD00914601002309F4A3
:1046700029CA009146010A9531F00A9561F00A9520
:1046800009F400CA1CCAEDEAF1E001E00E949915A4
:104690000E94251014CA03E000938202E8EBF1E0C7
:1046A00001E00E9499150BCA12911E930A95E1F739
:1046B000089504E041915191619171910D901D9087
:1046C0002D903C90040E151E261E371E3C922E92F5
:1046D0001E920E9214960A9569F70895DA92CA927C
:1046E000BA92AA929A928A927A926A925A924A922A
:1046F000BA93AA939A938A93A0976801EDEAF3E09C
:10470000DE01509600E115911D930A95E1F750E006
:10471000F901E40FF51F5901842F042F0F7308339B
:1047200049F000E8019301C051938395082F0F735E
:104730000833D1F708E0409F00823196108231960D
:104740005083319650833196508331965083319601
:10475000508331965083885F04E0809F812D00E173
:10476000FE01B096DE0150969FDF0DE2802E02E042
:10477000902E90E095FBE6F194FB088119812A8147
:104780003B814C815D816E817F81EEF008841984CC
:104790002A843B8440215121622173214C805D8019
:1047A0006E807F8040945094609470940C841D843B
:1047B0002E843F84402051206220732044295529B3
:1047C0006629772952C00C841D842E843F844021A1
:1047D000512162217321488459846A847B840C842A
:1047E0001D842E843F840094109420943094E2CF52
:1047F00094FBFEF0488159816A817B810C811D8187
:104800002E813F81088419842A843B840025112548
:10481000222533250C841D842E843F8400251125F8
:1048200022253325400F511F621F731F2A013B01B0
:1048300022C0088119812A813B81488559856A8572
:104840007B854C805D806E807F800C841D842E84EF
:104850003F8400941094209430944028512862287A
:1048600073284425552566257725040F151F261F17
:10487000371F28013901F4010591159125913591D2
:10488000400E511E621E731E459115914F0104E0AA
:10489000109FF501E00DF11D00811181228133810E
:1048A000400E511E621E731E440C551C661C771C64
:1048B00010F4689440F84A95B9F70C811D812E8157
:1048C0003F81400E511E621E731E488259826A82C9
:1048D0007B824C845D846E847F840CE0FE013C9678
:1048E000DE015096E1DE488259826A827B8293958E
:1048F00096FB0EF03FCFFE01DE015096DADE00E4BB
:10490000A00E00E0B01E8A9509F029CFD601FE0165
:10491000709620E13191132F032F12951F70105DB7
:104920001A3308F0195D1D930F70005D0A3308F00B
:10493000095D0D932A9571F7A09689919991A99196
:10494000B991499059906990799089909990A990DE
:10495000B990C990D9900895002309F01395219139
:104960002D930A95E1F71A95D1F7089577961C963D
:1049700002C07B9618960E915291051B1E91529182
:10498000150B2E915291250B3E915291350B232BF5
:1049900009F408950FEF1FEF089510E07081618111
:1049A0005281438120E0400F511F621F721F7083AC
:1049B0006183528343830895AC01C80100E010E095
:1049C0008230900760F02D913D91020F131F10F47B
:1049D0000F5F1F4F0297823020E09207A0F78130CF
:1049E000904039F42C9130E0020F131F10F40F5F48
:1049F0001F4F00951095CA01089502910E930291E0
:104A00000E9302910E9302910E9302910E930291D6
:104A10000E9308958D01DF01F801208131814D91C0
:104A20005C9111972417350771F402811381248159
:104A30003581FD0142815381648175810417150719
:104A40002607370711F001E0089500E008951C9152
:104A500020812D9311930A95D1F708953B2F4A2F6A
:104A6000212FDF010D932A95E9F7A42FB32F089585
:104A700000E000A700918F02109190020083118343
:104A8000E0938F02F093900208959D01038F03300D
:104A900011F402E001C002E1048F17A3A9E8B2E01B
:104AA0000D911D916D917C91119760277127600F79
:104AB000711F6D937C93038B148B658B768B04E055
:104AC00000A700E003A304A305A306A3D90108954A
:104AD0008A93FD01518B428B40E04787408BE5E88C
:104AE000F2E04481558166817781462757275370CC
:104AF0005C5F0BC0FB01838D823060F037842088BF
:104B00004215530539F44F5F5F4F60918F027091EA
:104B1000900202C060817181062E072A59F7FD01BB
:104B20005787408B038714872587368710E003E07B
:104B3000ACDF119A8991089510E098961D931C930B
:104B400097971C91129710FF02C011E001C010E06E
:104B50005B961C935B97FD01A0E0B0E010E09F0125
:104B60004381F481E42F099408E112E0248528317F
:104B700008F408952489223059F42589243041F419
:104B80003689278900E415E02034310708F48901CB
:104B900008959A938A93C801FD0121A332A314E0DA
:104BA00002E073DF5796FD01DC010D911D912D91FF
:104BB0003C911397008311832283338301E0EDDE60
:104BC000899199910895BA92AA929A928A927A9228
:104BD0006A925A924A92BA93AA939A938A938EC2ED
:104BE00000E10093930202C0013031F0149B06C62D
:104BF00014988FE892E0FCC5A0908D02B0908E02D0
:104C000001EA402E02E0502E81EA92E0E1EAF2E071
:104C1000A485B585189709F4DBC0A050B64009F00B
:104C200068C20091B1021091B2020830104009F040
:104C300060C20091AF021091B0020030114009F043
:104C400058C2E091B502F091B602E050F14029F06F
:104C5000E050F14009F457C04CC2E1EAF2E006A18D
:104C600017A120A531A5E5E8F2E0408151816281DC
:104C70007381041715072607370709F03AC2009118
:104C8000A1021091A20201231091A302012310910D
:104C9000A40201231091A50201231091A602012371
:104CA0000F3F09F026C2E1EAF2E0048D158D268D52
:104CB000378D06A317A320A731A77C96A7ECB2E0F7
:104CC0009CDEEAE9F2E0ADEBB2E097DEEDEAF2E07D
:104CD000A7EAB2E092DEEAE9F2E0ADEAB2E08DDE08
:104CE00000E012E0E1EAF2E0048B158BE5E8F2E087
:104CF0000081118122813381E1EAF2E0048F158F76
:104D0000268F378F1BC3F20106A117A120A531A55D
:104D1000E5E8F2E040815181628173810417150753
:104D20002607370709F0E5C1E4E9F2E0D20172DEB7
:104D3000002309F0DEC1F2017C960CE0400E00E099
:104D4000501ED2015ADE80918F029091900202C0D3
:104D500080819181082F092B09F4CBC1FC01038DBF
:104D60000330B1F7E1EAF2E0048D158D268D378D21
:104D7000FC014789508D618D728D04171507260738
:104D8000370731F704E0038F00E0078B008F018FB6
:104D9000028F01EA402E02E0502E642C702E038513
:104DA000148525853685F201068F178F20A331A340
:104DB0000CE0400E00E0501EF201DC011B961DDEEF
:104DC0004C010FE0800E00E0901EAA24BB2415C207
:104DD000068D178D20A131A1E5E8F2E040815181D7
:104DE00062817381041715072607370709F081C10F
:104DF000E4E9F2E0D2010EDE002309F07AC1F50108
:104E0000B090B102A090B2023E970091AF02007F35
:104E1000003409F06EC10091AF020F70000F000F57
:104E2000093208F066C110E00E171F0708F061C1D3
:104E3000EA15FB0508F45DC1A016B10608F459C1D6
:104E4000A01AB10A1FEA612E12E0712E10E0600E66
:104E5000711E00918302002341F40091B50210916C
:104E6000B6020F73012B09F044C1009183020023A5
:104E700041F404E110E0AFEAB2E09EDD012B09F05D
:104E800038C10091B8020A9519F00550A9F131C155
:104E900008E0A01600E0B00608F42BC18501D3019C
:104EA0008BDD012B09F025C1F3010181002309F0FD
:104EB00020C10081083009F01CC1E1EAF2E0028D56
:104EC000138D248D358D068F178F20A331A3850177
:104ED000F301A3ECB2E040DD00E00093C302E1EA9D
:104EE000F2E004A305A38501A3ECB2E065DDE1EAED
:104EF000F2E004A315A3DCC104E1A01600E0B006B3
:104F000008F4F7C000918302002391F4F201B08EFF
:104F1000A18E8501D30150DD00951095F201048B1F
:104F2000158BF3010485007F06950695048702C062
:104F3000F3010485043108F4DCC00D3308F0D9C056
:104F400010E0A016B10608F4D4C0A01AB10A10935C
:104F5000B70200918302002339F40EE0A5EBB2E022
:104F60002BDD012B09F0C5C080918F02909190023A
:104F700003C0FC0180819181082F092B09F4F8C33B
:104F8000FC0107851089F301228133810217130781
:104F900081F7FC01038D013081F5F301058507716F
:104FA000023009F0E5C3F201028D138D248D358D99
:104FB000FC010387148725873687F301008111815F
:104FC000FC01018B128B0CE0400E00E0501EF20140
:104FD000DC011B9612DDF301058502FFAEC0FC016A
:104FE000038D0A9509F485C00350D30109F498C0D4
:104FF000C0DC012B09F07DC097C001891289F30143
:10500000208131810217130779F4FC01038514858F
:1050100025853685F201428D538D648D758D04177B
:10502000150726073707B9F2F30105850771023026
:1050300009F09FCFFC01038D002309F49ACFD3011F
:10504000189610E00BE08BDDA02FF3018084918493
:105050000023F1F0F40100851185F30120813181F5
:105060000217130779F4F401428553856485758529
:10507000F201028D138D248D358D40175107620783
:105080007307B9F102E1800E00E0901EAA9511F7B6
:10509000FC01D301189610E00AE061DD002309F459
:1050A00068CFF30180849184EDEAF2E0D401169692
:1050B000A4DCF30159DDF40106831783F3010081B9
:1050C0001181F40100871187E1EAF2E0028D138D6E
:1050D000248D358DF4010287138724873587F301EA
:1050E0000481158126813781F40106871787208B7B
:1050F000318B00E0009393020E94B6160091930258
:10510000023008F471CD20918D0230918E0201EAB7
:1051100012E00E942E0C002309F062CD00E061CD68
:1051200025DC0130104029F7DC0104E005DD002317
:1051300001F308E0FC01038FDCCF01FF09C1FC0192
:10514000038D0A9599F10350D30199F012DC012BDC
:1051500081F6FC01358D268D2A153B0550F2DC01C8
:1051600004E0EADC002309F403C308E0FC01038F38
:10517000FFC2FCDB0130104009F0BBCFAC01495E3F
:105180005F4FF3010481158126813781FA01008385
:1051900011832283338301E000DCF301E5DCFC01B1
:1051A00001A312A3DC0101E0D6DC0FC2F3010585E7
:1051B00004FDDEC2DC0101E0CEDCF301D5DC9801A8
:1051C00004E0600E00E0701E8301DC01E2DC4C01B3
:1051D0000FE0800E00E0901EAA24BB2401EA402EBE
:1051E00002E0642C702EE1EAF2E0028D138D248D32
:1051F000358D068F178F20A331A3E5E8F2E00081FB
:10520000118122813381F301028F138F248F358F17
:1052100000E0068B06E0078B10E000E1F401D3010B
:1052200092969ADB00E5F30106A7082F092B61F19E
:10523000FC0105A116A121A5213019F400E010E020
:1052400001A7F301B696AADBFC0105A116A10A0D80
:105250001B1D05A316A323A134A12017310710F4A9
:1052600003A314A3F30107A501FF0EC000E606A7E0
:1052700002E006AB04E007AB05E000AF00E401AFDD
:1052800004E0A00E00E0B01E04E1A00E00E0B01E9D
:10529000B08EA18E04AB05AB02AB03AB8501045FFE
:1052A0001F4FD301569688DBF30102AB13ABC3014A
:1052B00004E1A00E00E0B01E3C96DC0116969DDBDA
:1052C000EAE9F2E0DC011C9698DB08E010E0FC0162
:1052D0000487158705E406871787B08AA18AE5E861
:1052E000F2E0048515850F5F1F4F04871587FC01C9
:1052F000128B038B30E020E4248B358B00E8068B87
:10530000308F318FE5E8F2E0008111812281338115
:10531000FC01028F138F248F358F04E110E0DC0134
:105320001E964ADBFC01008F118F0EE0A00E00E0FC
:10533000B01E0CE3A01600E0B00618F40CE3A02E9B
:10534000BB24E5E8F2E0A086B18600E10687DBCE6B
:1053500004FFCFCEFC01038D043009F4CACED30183
:1053600008DB2801FC01358D268D2A153B0508F444
:105370002ECF012B038D09F41AC1053009F4ECC1BD
:1053800001E0401600E050060CF421CF00918302AA
:10539000002309F482C04090840280918D02909194
:1053A0008E02A1EAB2E0082F092B09F4A2CE0E94D6
:1053B0006406093715402040304008F49ACE002496
:1053C000ECEEF0E0008111812281338103961C0113
:1053D000949846E04FB9779BFECF949A949842E018
:1053E0004FB9779BFECF2FB9779BFECF1FB9779B25
:1053F000FECF0FB9779909C0FDCF402D002029F0CD
:105400004A9541F04A9549F00AC0FC013397EF2FC5
:10541000039406C0E82FE350FBCFE42DF9CFED91C4
:10542000EFB940E00F5F1F4F2F4F3F4F0030140781
:1054300052E02507340708F041E0779BFECF442374
:10544000C1F0949A05E419EC21E030E0949846E02C
:105450004FB9779BFECF949A94985FB9779BFECF14
:105460002FB9779BFECF1FB9779BFECF0FB9779BE4
:10547000FECFA1016FEF260E361E452B09F0BDCFE2
:10548000949AECEEF0E00083118322833383009141
:10549000F00003950093F0002CCEE5E8F2E0A68141
:1054A000B781AC5E4084518401EA602E02E0702E28
:1054B000042D052909F48BCE0E9464060937154096
:1054C000B0E02040304008F482CEECEEF0E0008105
:1054D00011812281338143E0440E5B1E02019498C6
:1054E00046E04FB9779BFECF949A949842E04FB92B
:1054F000779BFECF2FB9779BFECF1FB9779BFECF4F
:105500000FB9779909C0FDCF4B2FBB2329F04A95DE
:1055100041F04A9549F00AC0A20143505040B3956A
:1055200008C0542D5350FBCF5A2FF9CFF30151919E
:105530003F015FB950E00F5F1F4F2F4F3F4F0030CB
:10554000150742E02407350708F051E0779BFECFAE
:105550005523C9F0949A05E419EC21E030E09498C1
:1055600046E04FB9779BFECF949A949842E04FB9AA
:10557000779BFECF2FB9779BFECF1FB9779BFECFCE
:105580000FB9779BFECFB0014FEF040E141E672BAF
:1055900009F0BACF949AECEEF0E0008311832283F5
:1055A00033830091F00003950093F00010CE025079
:1055B00031F0035009F4C5C00A95A1F0D9C0D30158
:1055C000D5D90130104009F0D3C001E0FC01739639
:1055D000E4D906E0FC01038F00E1048F028100683A
:1055E000028347C0D301C2D9280111230AF481CD17
:1055F000FC0103A114A10415150508F4E8CD041954
:10560000150903A314A345A156A18A01242F04154B
:10561000150518F400E010E002C00419150905A3EF
:1056200016A3012B99F4252B89F000A510E4019F06
:10563000012C17A1011640F40F3F11F400E804C03B
:105640000695043008F404E007A300A782017396CE
:10565000A5D905C0FC01A0E0B0E005E080DA1FEFAD
:10566000411600E050060CF4142D411A500A112383
:1056700089F7F30116850785013025E1120710F03F
:1056800000E015E1FC01078F10A38501779686D90C
:1056900044245524950124193509313008F02FEFA1
:1056A000F301448550E0D301A40FB51FA40DB51D2F
:1056B000FC01122F07E053DA950124193509313026
:1056C00010F02FEF30E0420E531E4A145B0411F726
:1056D000F301158510FF08C001E0FC0177965DD944
:1056E00005E0FC01038F04C0FC01138D153029F483
:1056F00001E1048F00E007A3FCCC258D368D232B20
:1057000009F465CD002339F005A116A1012B19F488
:1057100003E001A7EECCAB2809F4EBCC00A507A36E
:10572000028107FB4EF40F77028301A5043008F4D1
:105730004ECD00E001A74BCD15E011A70068028314
:10574000D8CCF301058500FD07C0FC01D3010ED9BB
:10575000013010400CF4CDCCDC0103E0EDD9002386
:1057600019F008E0FC01038FF301058500FFC1CCAF
:10577000F301058504FF12C0D301149604E0FD0176
:10578000349665D9F301058500FF06C001E038961F
:1057900004D901E1F30117C004E015C09301285FAB
:1057A0003F4F4481558166817781F9014083518360
:1057B0006283738301E0F1D800E0F3010483058381
:1057C0000683078304E1058702E03296D3013FD9BF
:1057D000430102CDFC0100A5002329F007A100230D
:1057E00011F00A9507A301A5043010F00A9501A74E
:1057F000FC0180819181082F092B61F78FE892E0ED
:1058000003C0DC0104E098D9FC0180819181082F5C
:10581000092B09F453C1FC0102A5002319F0DC0196
:1058200009E099D9FC01038D0830C1F001A50330CE
:10583000A9F000A5002341F307A1002329F7038D58
:10584000025051F00A9529F0015010F0035020F059
:1058500032C100A50F3FA9F201E007A3F89410910F
:10586000930201E0009393027894112309F046CC4F
:105870000E94B61601EA602E02E0702EFC01038D34
:10588000033009F050C000A5000F003218F01FEFE0
:1058900010A701C000A707A300E011E0E1EAF2E0D1
:1058A0000687178708E010E0008B118B06E0028B5B
:1058B00004E0038B00E011E0048B158B08E016E098
:1058C0000487158705E8602E02E0702EEAE9F2E011
:1058D000ADEBB2E092D8F3010081118122813381D6
:1058E000E1EAF2E0048F158F268F378F16E000E093
:1058F000B096B4D8FC010789108D218D328DE1EA74
:10590000F2E006A317A320A731A705E1600E00E08F
:10591000701EF301ADEAB2E070D816E00FEFE1EAD5
:10592000F2E09CD80BCD083069F5D3019A9610E0CF
:105930000BE015D9F30142A453A4F2013696DC0121
:105940001B965BD8F2010285138524853585FC0101
:105950000387148725873687F20100851185FC01AE
:10596000018B128BDC0101E0F6D8F2012681378130
:105970000EE0400E00E0501E8201DC010AD9DC017D
:105980000CE0E9D82301FC010385148525853685C3
:10599000F301068F178F20A331A3FC013B960CE087
:1059A000400E00E0501ED20128D84C010FE0800EBE
:1059B00000E0901EAA24BB24FC0100A50F3F59F46F
:1059C00004E0048FDC010CE0C6D80023D9F7DC0129
:1059D00004E0B2D812CC01A5033031F0038D0630BB
:1059E00009F057C0A5A2A6A202810F77028305A1E4
:1059F00016A128E0302F312B09F426E0478C50A067
:105A0000401A510A01A112A14016510619F402E0F0
:105A100001A704C00415150508F428010FEF40166E
:105A20005A0408F4042D401A5A08A7EDB2E0102FCA
:105A3000022F07C0FC01A7EDB2E0AA0DBB1D102F7D
:105A400008E08DD810E0002359F0A00EB11E0FEF32
:105A50004016510608F4042D401A510A002351F74C
:105A6000FC01048D1A2D1B2911F0086001C0077F6D
:105A7000048F01A5023019F400E001A703C001A5BD
:105A8000033039F40A2D0B2909F0B7CB01E001A747
:105A9000B4CB00A5000F138D123011F0143031F487
:105AA000003238F01FEF10A707A3A7CB002309F49B
:105AB0000FEF00A7F9CF00E000A7A6CE899199913A
:105AC000A991B9914990599069907990899099904C
:105AD000A990B9900895FA93EA932A931A930A9396
